{
  "_format": "hh-sol-artifact-1",
  "contractName": "CampaignFactory",
  "sourceName": "contracts/Campaign.sol",
  "abi": [
    {
      "inputs": [
        {
          "internalType": "string",
          "name": "c_name",
          "type": "string"
        },
        {
          "internalType": "string",
          "name": "category",
          "type": "string"
        },
        {
          "internalType": "string",
          "name": "c_description",
          "type": "string"
        },
        {
          "internalType": "uint256",
          "name": "minimum",
          "type": "uint256"
        }
      ],
      "name": "createCampaign",
      "outputs": [],
      "stateMutability": "nonpayable",
      "type": "function"
    },
    {
      "inputs": [
        {
          "internalType": "uint256",
          "name": "",
          "type": "uint256"
        }
      ],
      "name": "deployedCampaigns",
      "outputs": [
        {
          "internalType": "contract Campaign",
          "name": "",
          "type": "address"
        }
      ],
      "stateMutability": "view",
      "type": "function"
    },
    {
      "inputs": [],
      "name": "getDeployedCampaigns",
      "outputs": [
        {
          "internalType": "contract Campaign[]",
          "name": "",
          "type": "address[]"
        }
      ],
      "stateMutability": "view",
      "type": "function"
    }
  ],
  "bytecode": "0x608060405234801561001057600080fd5b5061253e806100206000396000f3fe60806040523480156200001157600080fd5b5060043610620000465760003560e01c8063339d50a5146200004b5780634a15ef9214620000815780634acb9d4f14620000a1575b600080fd5b62000069600480360381019062000063919062000390565b620000c3565b604051620000789190620004e9565b60405180910390f35b6200009f6004803603810190620000999190620002d9565b62000103565b005b620000ab620001b2565b604051620000ba9190620004c5565b60405180910390f35b60008181548110620000d457600080fd5b906000526020600020016000915054906101000a900473ffffffffffffffffffffffffffffffffffffffff1681565b60008484848433604051620001189062000242565b6200012895949392919062000506565b604051809103906000f08015801562000145573d6000803e3d6000fd5b5090506000819080600181540180825580915050600190039060005260206000200160009091909190916101000a81548173ffffffffffffffffffffffffffffffffffffffff021916908373ffffffffffffffffffffffffffffffffffffffff1602179055505050505050565b606060008054806020026020016040519081016040528092919081815260200182805480156200023857602002820191906000526020600020905b8160009054906101000a900473ffffffffffffffffffffffffffffffffffffffff1673ffffffffffffffffffffffffffffffffffffffff1681526020019060010190808311620001ed575b5050505050905090565b611da1806200076883390190565b6000620002676200026184620005a1565b62000578565b9050828152602081018484840111156200028057600080fd5b6200028d84828562000692565b509392505050565b600082601f830112620002a757600080fd5b8135620002b984826020860162000250565b91505092915050565b600081359050620002d3816200074d565b92915050565b60008060008060808587031215620002f057600080fd5b600085013567ffffffffffffffff8111156200030b57600080fd5b620003198782880162000295565b945050602085013567ffffffffffffffff8111156200033757600080fd5b620003458782880162000295565b935050604085013567ffffffffffffffff8111156200036357600080fd5b620003718782880162000295565b92505060606200038487828801620002c2565b91505092959194509250565b600060208284031215620003a357600080fd5b6000620003b384828501620002c2565b91505092915050565b6000620003ca838362000451565b60208301905092915050565b620003e1816200062c565b82525050565b6000620003f482620005e7565b6200040081856200060a565b93506200040d83620005d7565b8060005b8381101562000444578151620004288882620003bc565b97506200043583620005fd565b92505060018101905062000411565b5085935050505092915050565b6200045c816200066a565b82525050565b6200046d816200066a565b82525050565b60006200048082620005f2565b6200048c81856200061b565b93506200049e818560208601620006a1565b620004a9816200073c565b840191505092915050565b620004bf8162000660565b82525050565b60006020820190508181036000830152620004e18184620003e7565b905092915050565b600060208201905062000500600083018462000462565b92915050565b600060a082019050818103600083015262000522818862000473565b9050818103602083015262000538818762000473565b905081810360408301526200054e818662000473565b90506200055f6060830185620004b4565b6200056e6080830184620003d6565b9695505050505050565b60006200058462000597565b9050620005928282620006d7565b919050565b6000604051905090565b600067ffffffffffffffff821115620005bf57620005be6200070d565b5b620005ca826200073c565b9050602081019050919050565b6000819050602082019050919050565b600081519050919050565b600081519050919050565b6000602082019050919050565b600082825260208201905092915050565b600082825260208201905092915050565b6000620006398262000640565b9050919050565b600073ffffffffffffffffffffffffffffffffffffffff82169050919050565b6000819050919050565b600062000677826200067e565b9050919050565b60006200068b8262000640565b9050919050565b82818337600083830152505050565b60005b83811015620006c1578082015181840152602081019050620006a4565b83811115620006d1576000848401525b50505050565b620006e2826200073c565b810181811067ffffffffffffffff821117156200070457620007036200070d565b5b80604052505050565b7f4e487b7100000000000000000000000000000000000000000000000000000000600052604160045260246000fd5b6000601f19601f8301169050919050565b620007588162000660565b81146200076457600080fd5b5056fe60806040523480156200001157600080fd5b5060405162001da138038062001da1833981810160405281019062000037919062000225565b80600160006101000a81548173ffffffffffffffffffffffffffffffffffffffff021916908373ffffffffffffffffffffffffffffffffffffffff16021790555081600281905550846005908051906020019062000097929190620000d5565b508360069080519060200190620000b0929190620000d5565b508260079080519060200190620000c9929190620000d5565b505050505050620004d4565b828054620000e390620003c5565b90600052602060002090601f01602090048101928262000107576000855562000153565b82601f106200012257805160ff191683800117855562000153565b8280016001018555821562000153579182015b828111156200015257825182559160200191906001019062000135565b5b50905062000162919062000166565b5090565b5b808211156200018157600081600090555060010162000167565b5090565b60006200019c62000196846200031b565b620002f2565b905082815260208101848484011115620001b557600080fd5b620001c28482856200038f565b509392505050565b600081519050620001db81620004a0565b92915050565b600082601f830112620001f357600080fd5b81516200020584826020860162000185565b91505092915050565b6000815190506200021f81620004ba565b92915050565b600080600080600060a086880312156200023e57600080fd5b600086015167ffffffffffffffff8111156200025957600080fd5b6200026788828901620001e1565b955050602086015167ffffffffffffffff8111156200028557600080fd5b6200029388828901620001e1565b945050604086015167ffffffffffffffff811115620002b157600080fd5b620002bf88828901620001e1565b9350506060620002d2888289016200020e565b9250506080620002e588828901620001ca565b9150509295509295909350565b6000620002fe62000311565b90506200030c8282620003fb565b919050565b6000604051905090565b600067ffffffffffffffff82111562000339576200033862000460565b5b62000344826200048f565b9050602081019050919050565b60006200035e8262000365565b9050919050565b600073ffffffffffffffffffffffffffffffffffffffff82169050919050565b6000819050919050565b60005b83811015620003af57808201518184015260208101905062000392565b83811115620003bf576000848401525b50505050565b60006002820490506001821680620003de57607f821691505b60208210811415620003f557620003f462000431565b5b50919050565b62000406826200048f565b810181811067ffffffffffffffff8211171562000428576200042762000460565b5b80604052505050565b7f4e487b7100000000000000000000000000000000000000000000000000000000600052602260045260246000fd5b7f4e487b7100000000000000000000000000000000000000000000000000000000600052604160045260246000fd5b6000601f19601f8301169050919050565b620004ab8162000351565b8114620004b757600080fd5b50565b620004c58162000385565b8114620004d157600080fd5b50565b6118bd80620004e46000396000f3fe6080604052600436106100dd5760003560e01c806381d12c581161007f578063937e09b111610059578063937e09b1146102bb578063c40bec2b146102e6578063d7bb99ba14610311578063d7d1bbdb1461031b576100dd565b806381d12c581461022657806382fde093146102675780638a9cfd5514610292576100dd565b8063110842cb116100bb578063110842cb146101735780633410452a1461019e5780634051ddac146101c9578063481c6a75146101fb576100dd565b806303441006146100e25780630724fda91461010b5780630a14439114610136575b600080fd5b3480156100ee57600080fd5b5061010960048036038101906101049190611020565b610344565b005b34801561011757600080fd5b50610120610555565b60405161012d91906111c6565b60405180910390f35b34801561014257600080fd5b5061015d60048036038101906101589190610f90565b6105e3565b60405161016a91906111ab565b60405180910390f35b34801561017f57600080fd5b50610188610603565b60405161019591906111c6565b60405180910390f35b3480156101aa57600080fd5b506101b3610691565b6040516101c09190611395565b60405180910390f35b3480156101d557600080fd5b506101de61069b565b6040516101f29897969594939291906111e8565b60405180910390f35b34801561020757600080fd5b50610210610899565b60405161021d9190611190565b60405180910390f35b34801561023257600080fd5b5061024d60048036038101906102489190611020565b6108bf565b60405161025e95949392919061127b565b60405180910390f35b34801561027357600080fd5b5061027c6109ba565b6040516102899190611395565b60405180910390f35b34801561029e57600080fd5b506102b960048036038101906102b49190610fb9565b6109c0565b005b3480156102c757600080fd5b506102d0610b1d565b6040516102dd9190611395565b60405180910390f35b3480156102f257600080fd5b506102fb610b23565b60405161030891906111c6565b60405180910390f35b610319610bb1565b005b34801561032757600080fd5b50610342600480360381019061033d9190611020565b610c68565b005b600160009054906101000a900473ffffffffffffffffffffffffffffffffffffffff1673ffffffffffffffffffffffffffffffffffffffff163373ffffffffffffffffffffffffffffffffffffffff16146103d4576040517f08c379a00000000000000000000000000000000000000000000000000000000081526004016103cb906112f5565b60405180910390fd5b600080828154811061040f577f4e487b7100000000000000000000000000000000000000000000000000000000600052603260045260246000fd5b90600052602060002090600502019050600260045461042e9190611422565b816003015411610473576040517f08c379a000000000000000000000000000000000000000000000000000000000815260040161046a90611375565b60405180910390fd5b8060020160149054906101000a900460ff16156104c5576040517f08c379a00000000000000000000000000000000000000000000000000000000081526004016104bc90611315565b60405180910390fd5b8060020160009054906101000a900473ffffffffffffffffffffffffffffffffffffffff1673ffffffffffffffffffffffffffffffffffffffff166108fc82600101549081150290604051600060405180830381858888f19350505050158015610533573d6000803e3d6000fd5b5060018160020160146101000a81548160ff0219169083151502179055505050565b60058054610562906114ef565b80601f016020809104026020016040519081016040528092919081815260200182805461058e906114ef565b80156105db5780601f106105b0576101008083540402835291602001916105db565b820191906000526020600020905b8154815290600101906020018083116105be57829003601f168201915b505050505081565b60036020528060005260406000206000915054906101000a900460ff1681565b60078054610610906114ef565b80601f016020809104026020016040519081016040528092919081815260200182805461063c906114ef565b80156106895780601f1061065e57610100808354040283529160200191610689565b820191906000526020600020905b81548152906001019060200180831161066c57829003601f168201915b505050505081565b6000600854905090565b6060806060600080600080600060056006600760025447600854600454600160009054906101000a900473ffffffffffffffffffffffffffffffffffffffff168780546106e7906114ef565b80601f0160208091040260200160405190810160405280929190818152602001828054610713906114ef565b80156107605780601f1061073557610100808354040283529160200191610760565b820191906000526020600020905b81548152906001019060200180831161074357829003601f168201915b50505050509750868054610773906114ef565b80601f016020809104026020016040519081016040528092919081815260200182805461079f906114ef565b80156107ec5780601f106107c1576101008083540402835291602001916107ec565b820191906000526020600020905b8154815290600101906020018083116107cf57829003601f168201915b505050505096508580546107ff906114ef565b80601f016020809104026020016040519081016040528092919081815260200182805461082b906114ef565b80156108785780601f1061084d57610100808354040283529160200191610878565b820191906000526020600020905b81548152906001019060200180831161085b57829003601f168201915b50505050509550975097509750975097509750975097509091929394959697565b600160009054906101000a900473ffffffffffffffffffffffffffffffffffffffff1681565b600081815481106108cf57600080fd5b90600052602060002090600502016000915090508060000180546108f2906114ef565b80601f016020809104026020016040519081016040528092919081815260200182805461091e906114ef565b801561096b5780601f106109405761010080835404028352916020019161096b565b820191906000526020600020905b81548152906001019060200180831161094e57829003601f168201915b5050505050908060010154908060020160009054906101000a900473ffffffffffffffffffffffffffffffffffffffff16908060020160149054906101000a900460ff16908060030154905085565b60045481565b600160009054906101000a900473ffffffffffffffffffffffffffffffffffffffff1673ffffffffffffffffffffffffffffffffffffffff163373ffffffffffffffffffffffffffffffffffffffff1614610a50576040517f08c379a0000000000000000000000000000000000000000000000000000000008152600401610a47906112f5565b60405180910390fd5b600080600181600181540180825580915050039060005260206000209060050201905083816000019080519060200190610a8b929190610e46565b50828160010181905550818160020160006101000a81548173ffffffffffffffffffffffffffffffffffffffff021916908373ffffffffffffffffffffffffffffffffffffffff16021790555060008160020160146101000a81548160ff0219169083151502179055506000816003018190555060086000815480929190610b1290611552565b919050555050505050565b60025481565b60068054610b30906114ef565b80601f0160208091040260200160405190810160405280929190818152602001828054610b5c906114ef565b8015610ba95780601f10610b7e57610100808354040283529160200191610ba9565b820191906000526020600020905b815481529060010190602001808311610b8c57829003601f168201915b505050505081565b600254341015610bf6576040517f08c379a0000000000000000000000000000000000000000000000000000000008152600401610bed906112d5565b60405180910390fd5b6001600360003373ffffffffffffffffffffffffffffffffffffffff1673ffffffffffffffffffffffffffffffffffffffff16815260200190815260200160002060006101000a81548160ff02191690831515021790555060046000815480929190610c6190611552565b9190505550565b6000808281548110610ca3577f4e487b7100000000000000000000000000000000000000000000000000000000600052603260045260246000fd5b90600052602060002090600502019050600360003373ffffffffffffffffffffffffffffffffffffffff1673ffffffffffffffffffffffffffffffffffffffff16815260200190815260200160002060009054906101000a900460ff16610d3f576040517f08c379a0000000000000000000000000000000000000000000000000000000008152600401610d3690611355565b60405180910390fd5b8060040160003373ffffffffffffffffffffffffffffffffffffffff1673ffffffffffffffffffffffffffffffffffffffff16815260200190815260200160002060009054906101000a900460ff1615610dce576040517f08c379a0000000000000000000000000000000000000000000000000000000008152600401610dc590611335565b60405180910390fd5b60018160040160003373ffffffffffffffffffffffffffffffffffffffff1673ffffffffffffffffffffffffffffffffffffffff16815260200190815260200160002060006101000a81548160ff021916908315150217905550806003016000815480929190610e3d90611552565b91905055505050565b828054610e52906114ef565b90600052602060002090601f016020900481019282610e745760008555610ebb565b82601f10610e8d57805160ff1916838001178555610ebb565b82800160010185558215610ebb579182015b82811115610eba578251825591602001919060010190610e9f565b5b509050610ec89190610ecc565b5090565b5b80821115610ee5576000816000905550600101610ecd565b5090565b6000610efc610ef7846113d5565b6113b0565b905082815260208101848484011115610f1457600080fd5b610f1f8482856114ad565b509392505050565b600081359050610f3681611842565b92915050565b600081359050610f4b81611859565b92915050565b600082601f830112610f6257600080fd5b8135610f72848260208601610ee9565b91505092915050565b600081359050610f8a81611870565b92915050565b600060208284031215610fa257600080fd5b6000610fb084828501610f27565b91505092915050565b600080600060608486031215610fce57600080fd5b600084013567ffffffffffffffff811115610fe857600080fd5b610ff486828701610f51565b935050602061100586828701610f7b565b925050604061101686828701610f3c565b9150509250925092565b60006020828403121561103257600080fd5b600061104084828501610f7b565b91505092915050565b61105281611465565b82525050565b61106181611453565b82525050565b61107081611477565b82525050565b600061108182611406565b61108b8185611411565b935061109b8185602086016114bc565b6110a481611657565b840191505092915050565b60006110bc602383611411565b91506110c782611668565b604082019050919050565b60006110df603183611411565b91506110ea826116b7565b604082019050919050565b6000611102602783611411565b915061110d82611706565b604082019050919050565b6000611125602e83611411565b915061113082611755565b604082019050919050565b6000611148603883611411565b9150611153826117a4565b604082019050919050565b600061116b603c83611411565b9150611176826117f3565b604082019050919050565b61118a816114a3565b82525050565b60006020820190506111a56000830184611058565b92915050565b60006020820190506111c06000830184611067565b92915050565b600060208201905081810360008301526111e08184611076565b905092915050565b6000610100820190508181036000830152611203818b611076565b90508181036020830152611217818a611076565b9050818103604083015261122b8189611076565b905061123a6060830188611181565b6112476080830187611181565b61125460a0830186611181565b61126160c0830185611181565b61126e60e0830184611058565b9998505050505050505050565b600060a08201905081810360008301526112958188611076565b90506112a46020830187611181565b6112b16040830186611049565b6112be6060830185611067565b6112cb6080830184611181565b9695505050505050565b600060208201905081810360008301526112ee816110af565b9050919050565b6000602082019050818103600083015261130e816110d2565b9050919050565b6000602082019050818103600083015261132e816110f5565b9050919050565b6000602082019050818103600083015261134e81611118565b9050919050565b6000602082019050818103600083015261136e8161113b565b9050919050565b6000602082019050818103600083015261138e8161115e565b9050919050565b60006020820190506113aa6000830184611181565b92915050565b60006113ba6113cb565b90506113c68282611521565b919050565b6000604051905090565b600067ffffffffffffffff8211156113f0576113ef611628565b5b6113f982611657565b9050602081019050919050565b600081519050919050565b600082825260208201905092915050565b600061142d826114a3565b9150611438836114a3565b925082611448576114476115ca565b5b828204905092915050565b600061145e82611483565b9050919050565b600061147082611483565b9050919050565b60008115159050919050565b600073ffffffffffffffffffffffffffffffffffffffff82169050919050565b6000819050919050565b82818337600083830152505050565b60005b838110156114da5780820151818401526020810190506114bf565b838111156114e9576000848401525b50505050565b6000600282049050600182168061150757607f821691505b6020821081141561151b5761151a6115f9565b5b50919050565b61152a82611657565b810181811067ffffffffffffffff8211171561154957611548611628565b5b80604052505050565b600061155d826114a3565b91507fffffffffffffffffffffffffffffffffffffffffffffffffffffffffffffffff8214156115905761158f61159b565b5b600182019050919050565b7f4e487b7100000000000000000000000000000000000000000000000000000000600052601160045260246000fd5b7f4e487b7100000000000000000000000000000000000000000000000000000000600052601260045260246000fd5b7f4e487b7100000000000000000000000000000000000000000000000000000000600052602260045260246000fd5b7f4e487b7100000000000000000000000000000000000000000000000000000000600052604160045260246000fd5b6000601f19601f8301169050919050565b7f41206d696e756d756d20636f6e747269627574696f6e2069732072657175697260008201527f65642e0000000000000000000000000000000000000000000000000000000000602082015250565b7f4f6e6c79207468652063616d706169676e206d616e616765722063616e20636160008201527f6c6c20746869732066756e6374696f6e2e000000000000000000000000000000602082015250565b7f5468697320726571756573742068617320616c7265616479206265656e20666960008201527f6e616c697a656400000000000000000000000000000000000000000000000000602082015250565b7f596f75206861766520616c726561647920766f74656420746f20617070726f7660008201527f6520746869732072657175657374000000000000000000000000000000000000602082015250565b7f4f6e6c7920636f6e7472696275746f72732063616e20617070726f766520612060008201527f7370656369666963207061796d656e7420726571756573740000000000000000602082015250565b7f546869732072657175657374206e65656473206d6f726520617070726f76616c60008201527f73206265666f72652069742063616e2062652066696e616c697a656400000000602082015250565b61184b81611453565b811461185657600080fd5b50565b61186281611465565b811461186d57600080fd5b50565b611879816114a3565b811461188457600080fd5b5056fea2646970667358221220669491ed518b2046f995664fbfafdf3510b75c2924ce36cd395482447b191aff64736f6c63430008040033a264697066735822122000fc9ee6b9f8ccd610ac679dc2811460555272fce1919179ac338118a6d7172664736f6c63430008040033",
  "linkReferences": {},
  "deployedLinkReferences": {}
}